{
  "contractName": "CarFactory",
  "abi": [
    {
      "constant": true,
      "inputs": [
        {
          "name": "",
          "type": "uint256"
        }
      ],
      "name": "ownershipStructs",
      "outputs": [
        {
          "name": "owner",
          "type": "address"
        },
        {
          "name": "price",
          "type": "uint256"
        },
        {
          "name": "makeModel",
          "type": "string"
        }
      ],
      "payable": false,
      "stateMutability": "view",
      "type": "function"
    },
    {
      "constant": true,
      "inputs": [],
      "name": "minimumPrice",
      "outputs": [
        {
          "name": "",
          "type": "uint256"
        }
      ],
      "payable": false,
      "stateMutability": "view",
      "type": "function"
    },
    {
      "constant": true,
      "inputs": [],
      "name": "owner",
      "outputs": [
        {
          "name": "",
          "type": "address"
        }
      ],
      "payable": false,
      "stateMutability": "view",
      "type": "function"
    },
    {
      "constant": true,
      "inputs": [
        {
          "name": "",
          "type": "uint256"
        }
      ],
      "name": "carsOwner",
      "outputs": [
        {
          "name": "",
          "type": "address"
        }
      ],
      "payable": false,
      "stateMutability": "view",
      "type": "function"
    },
    {
      "constant": true,
      "inputs": [
        {
          "name": "",
          "type": "address"
        },
        {
          "name": "",
          "type": "uint256"
        }
      ],
      "name": "allOwnedCars",
      "outputs": [
        {
          "name": "",
          "type": "uint256"
        }
      ],
      "payable": false,
      "stateMutability": "view",
      "type": "function"
    },
    {
      "constant": true,
      "inputs": [
        {
          "name": "",
          "type": "uint256"
        }
      ],
      "name": "cars",
      "outputs": [
        {
          "name": "",
          "type": "string"
        }
      ],
      "payable": false,
      "stateMutability": "view",
      "type": "function"
    },
    {
      "inputs": [
        {
          "name": "_minimumPrice",
          "type": "uint256"
        }
      ],
      "payable": false,
      "stateMutability": "nonpayable",
      "type": "constructor"
    },
    {
      "anonymous": false,
      "inputs": [
        {
          "indexed": false,
          "name": "",
          "type": "uint256"
        },
        {
          "indexed": false,
          "name": "",
          "type": "address"
        },
        {
          "indexed": false,
          "name": "",
          "type": "uint256"
        },
        {
          "indexed": false,
          "name": "",
          "type": "string"
        }
      ],
      "name": "LogCarBought",
      "type": "event"
    },
    {
      "constant": true,
      "inputs": [],
      "name": "getOwner",
      "outputs": [
        {
          "name": "",
          "type": "address"
        }
      ],
      "payable": false,
      "stateMutability": "view",
      "type": "function"
    },
    {
      "constant": false,
      "inputs": [
        {
          "name": "_makeModel",
          "type": "string"
        }
      ],
      "name": "buyCar",
      "outputs": [],
      "payable": true,
      "stateMutability": "payable",
      "type": "function"
    },
    {
      "constant": false,
      "inputs": [
        {
          "name": "_index",
          "type": "uint256"
        }
      ],
      "name": "deleteCar",
      "outputs": [],
      "payable": false,
      "stateMutability": "nonpayable",
      "type": "function"
    },
    {
      "constant": true,
      "inputs": [],
      "name": "getCarsLength",
      "outputs": [
        {
          "name": "",
          "type": "uint256"
        }
      ],
      "payable": false,
      "stateMutability": "view",
      "type": "function"
    },
    {
      "constant": true,
      "inputs": [
        {
          "name": "_index",
          "type": "uint256"
        }
      ],
      "name": "getCarDetails",
      "outputs": [
        {
          "name": "",
          "type": "address"
        },
        {
          "name": "",
          "type": "uint256"
        },
        {
          "name": "",
          "type": "string"
        }
      ],
      "payable": false,
      "stateMutability": "view",
      "type": "function"
    },
    {
      "constant": false,
      "inputs": [
        {
          "name": "_index",
          "type": "uint256"
        }
      ],
      "name": "takeOverCar",
      "outputs": [],
      "payable": true,
      "stateMutability": "payable",
      "type": "function"
    },
    {
      "constant": true,
      "inputs": [
        {
          "name": "_owner",
          "type": "address"
        }
      ],
      "name": "getCarsByOwner",
      "outputs": [
        {
          "name": "",
          "type": "uint256"
        }
      ],
      "payable": false,
      "stateMutability": "view",
      "type": "function"
    },
    {
      "constant": false,
      "inputs": [
        {
          "name": "_minimumPrice",
          "type": "uint256"
        }
      ],
      "name": "setMinimumPrice",
      "outputs": [],
      "payable": false,
      "stateMutability": "nonpayable",
      "type": "function"
    },
    {
      "constant": false,
      "inputs": [],
      "name": "withdraw",
      "outputs": [],
      "payable": false,
      "stateMutability": "nonpayable",
      "type": "function"
    },
    {
      "constant": true,
      "inputs": [],
      "name": "getBalance",
      "outputs": [
        {
          "name": "",
          "type": "uint256"
        }
      ],
      "payable": false,
      "stateMutability": "view",
      "type": "function"
    }
  ],
  "bytecode": "0x608060405234801561001057600080fd5b50604051602080611ac583398101806040528101908080519060200190929190505050336000806101000a81548173ffffffffffffffffffffffffffffffffffffffff021916908373ffffffffffffffffffffffffffffffffffffffff160217905550806706f05b59d3b2000081111515610119576040517f08c379a00000000000000000000000000000000000000000000000000000000081526004018080602001828103825260258152602001807f4d696e696d756d20707269636520726571756972656d656e74206973206e6f7481526020017f206d65742100000000000000000000000000000000000000000000000000000081525060400191505060405180910390fd5b8160018190555033600260006101000a81548173ffffffffffffffffffffffffffffffffffffffff021916908373ffffffffffffffffffffffffffffffffffffffff1602179055505050611953806101726000396000f3006080604052600436106100e6576000357c0100000000000000000000000000000000000000000000000000000000900463ffffffff1680630d6f405d146100eb57806312065fe0146101cb57806325cea976146101f65780632642eabf146102235780633ccfd60b1461027f578063472ec4541461029657806360098088146103765780636f973735146103a35780637f386b6c146103c3578063893d20e8146103ee5780638da5cb5b14610445578063c6850a1a1461049c578063c75bb4f4146104c7578063cb22bc4e1461051e578063f749b6b11461058b578063f7746e36146105ec575b600080fd5b3480156100f757600080fd5b5061011660048036038101908080359060200190929190505050610692565b604051808473ffffffffffffffffffffffffffffffffffffffff1673ffffffffffffffffffffffffffffffffffffffff16815260200183815260200180602001828103825283818151815260200191508051906020019080838360005b8381101561018e578082015181840152602081019050610173565b50505050905090810190601f1680156101bb5780820380516001836020036101000a031916815260200191505b5094505050505060405180910390f35b3480156101d757600080fd5b506101e0610774565b6040518082815260200191505060405180910390f35b34801561020257600080fd5b5061022160048036038101908080359060200190929190505050610793565b005b61027d600480360381019080803590602001908201803590602001908080601f0160208091040260200160405190810160405280939291908181526020018383808284378201915050505050509192919290505050610908565b005b34801561028b57600080fd5b50610294610c34565b005b3480156102a257600080fd5b506102c160048036038101908080359060200190929190505050610d7a565b604051808473ffffffffffffffffffffffffffffffffffffffff1673ffffffffffffffffffffffffffffffffffffffff16815260200183815260200180602001828103825283818151815260200191508051906020019080838360005b8381101561033957808201518184015260208101905061031e565b50505050905090810190601f1680156103665780820380516001836020036101000a031916815260200191505b5094505050505060405180910390f35b34801561038257600080fd5b506103a160048036038101908080359060200190929190505050610e8c565b005b6103c1600480360381019080803590602001909291905050506110ea565b005b3480156103cf57600080fd5b506103d8611372565b6040518082815260200191505060405180910390f35b3480156103fa57600080fd5b50610403611378565b604051808273ffffffffffffffffffffffffffffffffffffffff1673ffffffffffffffffffffffffffffffffffffffff16815260200191505060405180910390f35b34801561045157600080fd5b5061045a6113a1565b604051808273ffffffffffffffffffffffffffffffffffffffff1673ffffffffffffffffffffffffffffffffffffffff16815260200191505060405180910390f35b3480156104a857600080fd5b506104b16113c6565b6040518082815260200191505060405180910390f35b3480156104d357600080fd5b50610508600480360381019080803573ffffffffffffffffffffffffffffffffffffffff1690602001909291905050506113d3565b6040518082815260200191505060405180910390f35b34801561052a57600080fd5b506105496004803603810190808035906020019092919050505061141f565b604051808273ffffffffffffffffffffffffffffffffffffffff1673ffffffffffffffffffffffffffffffffffffffff16815260200191505060405180910390f35b34801561059757600080fd5b506105d6600480360381019080803573ffffffffffffffffffffffffffffffffffffffff16906020019092919080359060200190929190505050611452565b6040518082815260200191505060405180910390f35b3480156105f857600080fd5b5061061760048036038101908080359060200190929190505050611482565b6040518080602001828103825283818151815260200191508051906020019080838360005b8381101561065757808201518184015260208101905061063c565b50505050905090810190601f1680156106845780820380516001836020036101000a031916815260200191505b509250505060405180910390f35b60046020528060005260406000206000915090508060000160009054906101000a900473ffffffffffffffffffffffffffffffffffffffff1690806001015490806002018054600181600116156101000203166002900480601f01602080910402602001604051908101604052809291908181526020018280546001816001161561010002031660029004801561076a5780601f1061073f5761010080835404028352916020019161076a565b820191906000526020600020905b81548152906001019060200180831161074d57829003601f168201915b5050505050905083565b60003073ffffffffffffffffffffffffffffffffffffffff1631905090565b6000809054906101000a900473ffffffffffffffffffffffffffffffffffffffff1673ffffffffffffffffffffffffffffffffffffffff163373ffffffffffffffffffffffffffffffffffffffff16141515610857576040517f08c379a00000000000000000000000000000000000000000000000000000000081526004018080602001828103825260138152602001807f53656e646572206973206e6f74206f776e65720000000000000000000000000081525060200191505060405180910390fd5b806706f05b59d3b20000811115156108fd576040517f08c379a00000000000000000000000000000000000000000000000000000000081526004018080602001828103825260258152602001807f4d696e696d756d20707269636520726571756972656d656e74206973206e6f7481526020017f206d65742100000000000000000000000000000000000000000000000000000081525060400191505060405180910390fd5b816001819055505050565b6000610912611756565b600154341015151561098c576040517f08c379a00000000000000000000000000000000000000000000000000000000081526004018080602001828103825260188152602001807f4d696e696d756d207072696365206973206e6f74206d6574000000000000000081525060200191505060405180910390fd5b600160038490806001815401808255809150509060018203906000526020600020016000909192909190915090805190602001906109cb92919061178e565b500391506060604051908101604052803373ffffffffffffffffffffffffffffffffffffffff168152602001348152602001848152509050806004600084815260200190815260200160002060008201518160000160006101000a81548173ffffffffffffffffffffffffffffffffffffffff021916908373ffffffffffffffffffffffffffffffffffffffff160217905550602082015181600101556040820151816002019080519060200190610a8492919061180e565b50905050600560003373ffffffffffffffffffffffffffffffffffffffff1673ffffffffffffffffffffffffffffffffffffffff168152602001908152602001600020829080600181540180825580915050906001820390600052602060002001600090919290919091505550336006600084815260200190815260200160002060006101000a81548173ffffffffffffffffffffffffffffffffffffffff021916908373ffffffffffffffffffffffffffffffffffffffff1602179055507fb7be78796903a4a28159a9defd30707387d130903ee78659db9520072869199b82826000015183602001518460400151604051808581526020018473ffffffffffffffffffffffffffffffffffffffff1673ffffffffffffffffffffffffffffffffffffffff16815260200183815260200180602001828103825283818151815260200191508051906020019080838360005b83811015610bf2578082015181840152602081019050610bd7565b50505050905090810190601f168015610c1f5780820380516001836020036101000a031916815260200191505b509550505050505060405180910390a1505050565b6000809054906101000a900473ffffffffffffffffffffffffffffffffffffffff1673ffffffffffffffffffffffffffffffffffffffff163373ffffffffffffffffffffffffffffffffffffffff16141515610cf8576040517f08c379a00000000000000000000000000000000000000000000000000000000081526004018080602001828103825260138152602001807f53656e646572206973206e6f74206f776e65720000000000000000000000000081525060200191505060405180910390fd5b600260009054906101000a900473ffffffffffffffffffffffffffffffffffffffff1673ffffffffffffffffffffffffffffffffffffffff166108fc3073ffffffffffffffffffffffffffffffffffffffff16319081150290604051600060405180830381858888f19350505050158015610d77573d6000803e3d6000fd5b50565b60008060606004600085815260200190815260200160002060000160009054906101000a900473ffffffffffffffffffffffffffffffffffffffff16600460008681526020019081526020016000206001015460046000878152602001908152602001600020600201808054600181600116156101000203166002900480601f016020809104026020016040519081016040528092919081815260200182805460018160011615610100020316600290048015610e785780601f10610e4d57610100808354040283529160200191610e78565b820191906000526020600020905b815481529060010190602001808311610e5b57829003601f168201915b505050505090509250925092509193909250565b610e94611756565b60046000838152602001908152602001600020606060405190810160405290816000820160009054906101000a900473ffffffffffffffffffffffffffffffffffffffff1673ffffffffffffffffffffffffffffffffffffffff1673ffffffffffffffffffffffffffffffffffffffff16815260200160018201548152602001600282018054600181600116156101000203166002900480601f016020809104026020016040519081016040528092919081815260200182805460018160011615610100020316600290048015610fac5780601f10610f8157610100808354040283529160200191610fac565b820191906000526020600020905b815481529060010190602001808311610f8f57829003601f168201915b5050505050815250509050806000015173ffffffffffffffffffffffffffffffffffffffff163373ffffffffffffffffffffffffffffffffffffffff1614151561105e576040517f08c379a000000000000000000000000000000000000000000000000000000000815260040180806020018281038252601f8152602001807f53656e646572206973206e6f74206f776e6572206f662074686520636172210081525060200191505060405180910390fd5b60038281548110151561106d57fe5b906000526020600020016000611083919061188e565b60046000838152602001908152602001600020600080820160006101000a81549073ffffffffffffffffffffffffffffffffffffffff021916905560018201600090556002820160006110d6919061188e565b50506110e682826000015161153d565b5050565b6000806000600460008581526020019081526020016000209250826001015491508160020234101515156111ac576040517f08c379a00000000000000000000000000000000000000000000000000000000081526004018080602001828103825260328152602001807f56616c75652073686f756c64206265206d6f7265207468616e2074776963652081526020017f746865206f726967696e616c207072696365000000000000000000000000000081525060400191505060405180910390fd5b8260000160009054906101000a900473ffffffffffffffffffffffffffffffffffffffff1673ffffffffffffffffffffffffffffffffffffffff163373ffffffffffffffffffffffffffffffffffffffff1614151515611274576040517f08c379a00000000000000000000000000000000000000000000000000000000081526004018080602001828103825260198152602001807f4f776e65722073686f756c6420626520646966666572656e740000000000000081525060200191505060405180910390fd5b81340390508260000160009054906101000a900473ffffffffffffffffffffffffffffffffffffffff1673ffffffffffffffffffffffffffffffffffffffff166108fc6002838115156112c357fe5b0484019081150290604051600060405180830381858888f193505050501580156112f1573d6000803e3d6000fd5b50611320848460000160009054906101000a900473ffffffffffffffffffffffffffffffffffffffff1661153d565b338360000160006101000a81548173ffffffffffffffffffffffffffffffffffffffff021916908373ffffffffffffffffffffffffffffffffffffffff16021790555034836001018190555050505050565b60015481565b60008060009054906101000a900473ffffffffffffffffffffffffffffffffffffffff16905090565b6000809054906101000a900473ffffffffffffffffffffffffffffffffffffffff1681565b6000600380549050905090565b6000600560008373ffffffffffffffffffffffffffffffffffffffff1673ffffffffffffffffffffffffffffffffffffffff168152602001908152602001600020805490509050919050565b60066020528060005260406000206000915054906101000a900473ffffffffffffffffffffffffffffffffffffffff1681565b60056020528160005260406000208181548110151561146d57fe5b90600052602060002001600091509150505481565b60038181548110151561149157fe5b906000526020600020016000915090508054600181600116156101000203166002900480601f0160208091040260200160405190810160405280929190818152602001828054600181600116156101000203166002900480156115355780601f1061150a57610100808354040283529160200191611535565b820191906000526020600020905b81548152906001019060200180831161151857829003601f168201915b505050505081565b6000806000806000809350600560008773ffffffffffffffffffffffffffffffffffffffff1673ffffffffffffffffffffffffffffffffffffffff1681526020019081526020016000209250600091505b82805490508210156115d3578683838154811015156115a957fe5b906000526020600020015414156115c657600193508194506115d3565b818060010192505061158e565b831515611648576040517f08c379a00000000000000000000000000000000000000000000000000000000081526004018080602001828103825260158152602001807f436172206861736e2774206265656e20666f756e64000000000000000000000081525060200191505060405180910390fd5b82600184805490500381548110151561165d57fe5b90600052602060002001549050828581548110151561167857fe5b906000526020600020015483600185805490500381548110151561169857fe5b90600052602060002001819055508083868154811015156116b557fe5b90600052602060002001819055508260018480549050038154811015156116d857fe5b9060005260206000200160009055828054809190600190036116fa91906118d6565b50336006600089815260200190815260200160002060006101000a81548173ffffffffffffffffffffffffffffffffffffffff021916908373ffffffffffffffffffffffffffffffffffffffff16021790555050505050505050565b606060405190810160405280600073ffffffffffffffffffffffffffffffffffffffff16815260200160008152602001606081525090565b828054600181600116156101000203166002900490600052602060002090601f016020900481019282601f106117cf57805160ff19168380011785556117fd565b828001600101855582156117fd579182015b828111156117fc5782518255916020019190600101906117e1565b5b50905061180a9190611902565b5090565b828054600181600116156101000203166002900490600052602060002090601f016020900481019282601f1061184f57805160ff191683800117855561187d565b8280016001018555821561187d579182015b8281111561187c578251825591602001919060010190611861565b5b50905061188a9190611902565b5090565b50805460018160011615610100020316600290046000825580601f106118b457506118d3565b601f0160209004906000526020600020908101906118d29190611902565b5b50565b8154818355818111156118fd578183600052602060002091820191016118fc9190611902565b5b505050565b61192491905b80821115611920576000816000905550600101611908565b5090565b905600a165627a7a723058208599ef257419291c6b243006e8c0dba4d1d60c5f1c4c383ef69f618896e1bc570029",
  "source": "pragma solidity ^0.4.24;\r\n\r\nimport \"./Ownable.sol\";\r\n\r\ncontract CarFactory is Ownable {\r\n\r\n    uint public minimumPrice;\r\n    address admin;\r\n    string[] public cars;\r\n    mapping(uint => OwnershipStruct) public ownershipStructs;\r\n    mapping(address => uint[]) public allOwnedCars;\r\n    mapping(uint => address ) public carsOwner;\r\n\r\n    modifier contractMinimumPrice(uint _minimumPrice) {\r\n        require(_minimumPrice>0.5 ether, \"Minimum price requirement is not met!\");\r\n        _;\r\n    }\r\n            \r\n    constructor(uint _minimumPrice) public contractMinimumPrice(_minimumPrice) {\r\n        minimumPrice = _minimumPrice;\r\n        admin = msg.sender;\r\n    }\r\n    \r\n    struct OwnershipStruct {\r\n        address owner;\r\n        uint256 price;\r\n        string makeModel;\r\n    }\r\n    \r\n    function getOwner() public view returns(address) {\r\n        return owner;\r\n    }\r\n\r\n    event LogCarBought(uint, address, uint, string );\r\n    function buyCar(string _makeModel) public payable {\r\n        require(msg.value >= minimumPrice, \"Minimum price is not met\");\r\n        \r\n        // .push() returns the new length;\r\n        uint index = cars.push(_makeModel)-1;\r\n        OwnershipStruct memory ownership = OwnershipStruct(msg.sender, msg.value, _makeModel);\r\n        \r\n        // set the ownership\r\n        ownershipStructs[index] = ownership;\r\n        \r\n        // save the all cars owned by someone\r\n        allOwnedCars[msg.sender].push(index);\r\n        carsOwner[index] = msg.sender;\r\n        emit LogCarBought(index, ownership.owner, ownership.price, ownership.makeModel);\r\n    }\r\n    \r\n    function deleteCar(uint _index) public {\r\n        OwnershipStruct memory ownership = ownershipStructs[_index];\r\n        \r\n        require(msg.sender == ownership.owner, \"Sender is not owner of the car!\");\r\n        \r\n        delete cars[_index];\r\n        delete ownershipStructs[_index];\r\n        removeCarFromOwner(_index, ownership.owner);\r\n    }\r\n\r\n    function getCarsLength() public view returns(uint) {\r\n        return cars.length;\r\n    }\r\n    \r\n    function getCarDetails(uint _index) public view returns(address, uint, string) {\r\n        return (ownershipStructs[_index].owner, ownershipStructs[_index].price, ownershipStructs[_index].makeModel);\r\n    }\r\n    \r\n    function takeOverCar(uint _index) public payable{\r\n        OwnershipStruct storage ownership = ownershipStructs[_index];\r\n        uint paid = ownership.price;\r\n        \r\n        require(msg.value >= 2*paid, \"Value should be more than twice the original price\");\r\n        require(msg.sender != ownership.owner, \"Owner should be different\");\r\n        \r\n        // transfer the money to the old owner\r\n        uint difference = msg.value - paid;\r\n        ownership.owner.transfer(paid + difference/2);\r\n        removeCarFromOwner(_index, ownership.owner);\r\n        \r\n        // set the new owner\r\n        ownership.owner = msg.sender;\r\n        ownership.price = msg.value;\r\n    }\r\n    \r\n    function removeCarFromOwner(uint _carIndex, address previousOwner) private {\r\n        uint elementIndex;\r\n        bool found = false;\r\n        uint[] storage allCars = allOwnedCars[previousOwner];\r\n        for  (uint256 i = 0; i < allCars.length; i++) {\r\n            if(allCars[i] == _carIndex) {\r\n                found = true;\r\n                elementIndex = i;\r\n                break;\r\n            }\r\n        }\r\n\r\n        require(found, \"Car hasn't been found\");\r\n        \r\n        // remove the car from owner's list\r\n        // order doesn't matter\r\n        uint lastItem = allCars[allCars.length-1];\r\n        allCars[allCars.length-1] = allCars[elementIndex];\r\n        allCars[elementIndex] = lastItem;\r\n        delete allCars[allCars.length-1];\r\n        allCars.length--;\r\n\r\n        carsOwner[_carIndex] = msg.sender;\r\n    }\r\n    \r\n    function getCarsByOwner(address _owner) public view returns(uint){\r\n        return allOwnedCars[_owner].length;\r\n    }\r\n    \r\n    // ***************************\r\n    // ********** ADMIN **********\r\n    // ***************************\r\n    function setMinimumPrice(uint _minimumPrice) public isOwner contractMinimumPrice(_minimumPrice) {\r\n        minimumPrice = _minimumPrice;\r\n    }\r\n    \r\n    function withdraw() public isOwner {\r\n        admin.transfer(address(this).balance);\r\n    }\r\n    \r\n    function getBalance() public view returns(uint) {\r\n        return address(this).balance;\r\n    }\r\n}\r\n",
  "sourcePath": "/Users/vladimir/Personal/ethereum/LimeAcademyHomework/homeworks/lecture-03/contracts/CarFactory.sol",
  "compiler": {
    "name": "solc",
    "version": "0.4.25+commit.59dbf8f1.Emscripten.clang"
  },
  "schemaVersion": "0.9.8",
  "updatedAt": "2018-11-10T17:33:05.986Z"
}