{
  "contractName": "CarFactory",
  "abi": [
    {
      "constant": true,
      "inputs": [
        {
          "name": "",
          "type": "uint256"
        }
      ],
      "name": "ownershipStructs",
      "outputs": [
        {
          "name": "owner",
          "type": "address"
        },
        {
          "name": "price",
          "type": "uint256"
        },
        {
          "name": "makeModel",
          "type": "string"
        },
        {
          "name": "image",
          "type": "string"
        }
      ],
      "payable": false,
      "stateMutability": "view",
      "type": "function"
    },
    {
      "constant": true,
      "inputs": [],
      "name": "minimumPrice",
      "outputs": [
        {
          "name": "",
          "type": "uint256"
        }
      ],
      "payable": false,
      "stateMutability": "view",
      "type": "function"
    },
    {
      "constant": true,
      "inputs": [],
      "name": "isOwner",
      "outputs": [
        {
          "name": "",
          "type": "bool"
        }
      ],
      "payable": false,
      "stateMutability": "view",
      "type": "function"
    },
    {
      "constant": true,
      "inputs": [],
      "name": "_owner",
      "outputs": [
        {
          "name": "",
          "type": "address"
        }
      ],
      "payable": false,
      "stateMutability": "view",
      "type": "function"
    },
    {
      "constant": true,
      "inputs": [
        {
          "name": "",
          "type": "uint256"
        }
      ],
      "name": "carsOwner",
      "outputs": [
        {
          "name": "",
          "type": "address"
        }
      ],
      "payable": false,
      "stateMutability": "view",
      "type": "function"
    },
    {
      "constant": true,
      "inputs": [
        {
          "name": "",
          "type": "address"
        },
        {
          "name": "",
          "type": "uint256"
        }
      ],
      "name": "allOwnedCars",
      "outputs": [
        {
          "name": "",
          "type": "uint256"
        }
      ],
      "payable": false,
      "stateMutability": "view",
      "type": "function"
    },
    {
      "constant": true,
      "inputs": [
        {
          "name": "",
          "type": "uint256"
        }
      ],
      "name": "cars",
      "outputs": [
        {
          "name": "",
          "type": "string"
        }
      ],
      "payable": false,
      "stateMutability": "view",
      "type": "function"
    },
    {
      "inputs": [
        {
          "name": "_minimumPrice",
          "type": "uint256"
        }
      ],
      "payable": false,
      "stateMutability": "nonpayable",
      "type": "constructor"
    },
    {
      "anonymous": false,
      "inputs": [
        {
          "indexed": false,
          "name": "",
          "type": "uint256"
        },
        {
          "indexed": false,
          "name": "",
          "type": "address"
        },
        {
          "indexed": false,
          "name": "",
          "type": "uint256"
        },
        {
          "indexed": false,
          "name": "",
          "type": "string"
        }
      ],
      "name": "LogCarBought",
      "type": "event"
    },
    {
      "constant": true,
      "inputs": [],
      "name": "getOwner",
      "outputs": [
        {
          "name": "",
          "type": "address"
        }
      ],
      "payable": false,
      "stateMutability": "view",
      "type": "function"
    },
    {
      "constant": false,
      "inputs": [
        {
          "name": "_makeModel",
          "type": "string"
        },
        {
          "name": "image",
          "type": "string"
        }
      ],
      "name": "buyCar",
      "outputs": [],
      "payable": true,
      "stateMutability": "payable",
      "type": "function"
    },
    {
      "constant": false,
      "inputs": [
        {
          "name": "_index",
          "type": "uint256"
        }
      ],
      "name": "deleteCar",
      "outputs": [],
      "payable": false,
      "stateMutability": "nonpayable",
      "type": "function"
    },
    {
      "constant": true,
      "inputs": [],
      "name": "getCarsLength",
      "outputs": [
        {
          "name": "",
          "type": "uint256"
        }
      ],
      "payable": false,
      "stateMutability": "view",
      "type": "function"
    },
    {
      "constant": true,
      "inputs": [
        {
          "name": "_index",
          "type": "uint256"
        }
      ],
      "name": "getCarDetails",
      "outputs": [
        {
          "name": "",
          "type": "address"
        },
        {
          "name": "",
          "type": "uint256"
        },
        {
          "name": "",
          "type": "string"
        },
        {
          "name": "",
          "type": "string"
        }
      ],
      "payable": false,
      "stateMutability": "view",
      "type": "function"
    },
    {
      "constant": false,
      "inputs": [
        {
          "name": "_index",
          "type": "uint256"
        }
      ],
      "name": "takeOverCar",
      "outputs": [],
      "payable": true,
      "stateMutability": "payable",
      "type": "function"
    },
    {
      "constant": true,
      "inputs": [
        {
          "name": "_owner",
          "type": "address"
        }
      ],
      "name": "getCarsByOwner",
      "outputs": [
        {
          "name": "",
          "type": "uint256"
        }
      ],
      "payable": false,
      "stateMutability": "view",
      "type": "function"
    },
    {
      "constant": false,
      "inputs": [
        {
          "name": "_minimumPrice",
          "type": "uint256"
        }
      ],
      "name": "setMinimumPrice",
      "outputs": [],
      "payable": false,
      "stateMutability": "nonpayable",
      "type": "function"
    },
    {
      "constant": false,
      "inputs": [],
      "name": "withdraw",
      "outputs": [],
      "payable": false,
      "stateMutability": "nonpayable",
      "type": "function"
    },
    {
      "constant": true,
      "inputs": [],
      "name": "getBalance",
      "outputs": [
        {
          "name": "",
          "type": "uint256"
        }
      ],
      "payable": false,
      "stateMutability": "view",
      "type": "function"
    }
  ],
  "bytecode": "0x608060405234801561001057600080fd5b50604051602080611ea483398101806040528101908080519060200190929190505050336000806101000a81548173ffffffffffffffffffffffffffffffffffffffff021916908373ffffffffffffffffffffffffffffffffffffffff160217905550806706f05b59d3b2000081111515610119576040517f08c379a00000000000000000000000000000000000000000000000000000000081526004018080602001828103825260258152602001807f4d696e696d756d20707269636520726571756972656d656e74206973206e6f7481526020017f206d65742100000000000000000000000000000000000000000000000000000081525060400191505060405180910390fd5b8160018190555033600260006101000a81548173ffffffffffffffffffffffffffffffffffffffff021916908373ffffffffffffffffffffffffffffffffffffffff1602179055505050611d32806101726000396000f3006080604052600436106100f1576000357c0100000000000000000000000000000000000000000000000000000000900463ffffffff1680630d6f405d146100f657806312065fe01461024257806325cea9761461026d5780633ccfd60b1461029a578063472ec454146102b157806360098088146103fd5780636f9737351461042a5780637f386b6c1461044a578063893d20e8146104755780638f32d59b146104cc57806390bdae8b146104fb578063b2bdfa7b1461059d578063c6850a1a146105f4578063c75bb4f41461061f578063cb22bc4e14610676578063f749b6b1146106e3578063f7746e3614610744575b600080fd5b34801561010257600080fd5b50610121600480360381019080803590602001909291905050506107ea565b604051808573ffffffffffffffffffffffffffffffffffffffff1673ffffffffffffffffffffffffffffffffffffffff1681526020018481526020018060200180602001838103835285818151815260200191508051906020019080838360005b8381101561019d578082015181840152602081019050610182565b50505050905090810190601f1680156101ca5780820380516001836020036101000a031916815260200191505b50838103825284818151815260200191508051906020019080838360005b838110156102035780820151818401526020810190506101e8565b50505050905090810190601f1680156102305780820380516001836020036101000a031916815260200191505b50965050505050505060405180910390f35b34801561024e57600080fd5b5061025761096a565b6040518082815260200191505060405180910390f35b34801561027957600080fd5b5061029860048036038101908080359060200190929190505050610989565b005b3480156102a657600080fd5b506102af610afe565b005b3480156102bd57600080fd5b506102dc60048036038101908080359060200190929190505050610c44565b604051808573ffffffffffffffffffffffffffffffffffffffff1673ffffffffffffffffffffffffffffffffffffffff1681526020018481526020018060200180602001838103835285818151815260200191508051906020019080838360005b8381101561035857808201518184015260208101905061033d565b50505050905090810190601f1680156103855780820380516001836020036101000a031916815260200191505b50838103825284818151815260200191508051906020019080838360005b838110156103be5780820151818401526020810190506103a3565b50505050905090810190601f1680156103eb5780820380516001836020036101000a031916815260200191505b50965050505050505060405180910390f35b34801561040957600080fd5b5061042860048036038101908080359060200190929190505050610e0b565b005b6104486004803603810190808035906020019092919050505061111b565b005b34801561045657600080fd5b5061045f6113a3565b6040518082815260200191505060405180910390f35b34801561048157600080fd5b5061048a6113a9565b604051808273ffffffffffffffffffffffffffffffffffffffff1673ffffffffffffffffffffffffffffffffffffffff16815260200191505060405180910390f35b3480156104d857600080fd5b506104e16113d2565b604051808215151515815260200191505060405180910390f35b61059b600480360381019080803590602001908201803590602001908080601f0160208091040260200160405190810160405280939291908181526020018383808284378201915050505050509192919290803590602001908201803590602001908080601f0160208091040260200160405190810160405280939291908181526020018383808284378201915050505050509192919290505050611429565b005b3480156105a957600080fd5b506105b2611779565b604051808273ffffffffffffffffffffffffffffffffffffffff1673ffffffffffffffffffffffffffffffffffffffff16815260200191505060405180910390f35b34801561060057600080fd5b5061060961179e565b6040518082815260200191505060405180910390f35b34801561062b57600080fd5b50610660600480360381019080803573ffffffffffffffffffffffffffffffffffffffff1690602001909291905050506117ab565b6040518082815260200191505060405180910390f35b34801561068257600080fd5b506106a1600480360381019080803590602001909291905050506117f7565b604051808273ffffffffffffffffffffffffffffffffffffffff1673ffffffffffffffffffffffffffffffffffffffff16815260200191505060405180910390f35b3480156106ef57600080fd5b5061072e600480360381019080803573ffffffffffffffffffffffffffffffffffffffff1690602001909291908035906020019092919050505061182a565b6040518082815260200191505060405180910390f35b34801561075057600080fd5b5061076f6004803603810190808035906020019092919050505061185a565b6040518080602001828103825283818151815260200191508051906020019080838360005b838110156107af578082015181840152602081019050610794565b50505050905090810190601f1680156107dc5780820380516001836020036101000a031916815260200191505b509250505060405180910390f35b60046020528060005260406000206000915090508060000160009054906101000a900473ffffffffffffffffffffffffffffffffffffffff1690806001015490806002018054600181600116156101000203166002900480601f0160208091040260200160405190810160405280929190818152602001828054600181600116156101000203166002900480156108c25780601f10610897576101008083540402835291602001916108c2565b820191906000526020600020905b8154815290600101906020018083116108a557829003601f168201915b505050505090806003018054600181600116156101000203166002900480601f0160208091040260200160405190810160405280929190818152602001828054600181600116156101000203166002900480156109605780601f1061093557610100808354040283529160200191610960565b820191906000526020600020905b81548152906001019060200180831161094357829003601f168201915b5050505050905084565b60003073ffffffffffffffffffffffffffffffffffffffff1631905090565b6000809054906101000a900473ffffffffffffffffffffffffffffffffffffffff1673ffffffffffffffffffffffffffffffffffffffff163373ffffffffffffffffffffffffffffffffffffffff16141515610a4d576040517f08c379a00000000000000000000000000000000000000000000000000000000081526004018080602001828103825260138152602001807f53656e646572206973206e6f74206f776e65720000000000000000000000000081525060200191505060405180910390fd5b806706f05b59d3b2000081111515610af3576040517f08c379a00000000000000000000000000000000000000000000000000000000081526004018080602001828103825260258152602001807f4d696e696d756d20707269636520726571756972656d656e74206973206e6f7481526020017f206d65742100000000000000000000000000000000000000000000000000000081525060400191505060405180910390fd5b816001819055505050565b6000809054906101000a900473ffffffffffffffffffffffffffffffffffffffff1673ffffffffffffffffffffffffffffffffffffffff163373ffffffffffffffffffffffffffffffffffffffff16141515610bc2576040517f08c379a00000000000000000000000000000000000000000000000000000000081526004018080602001828103825260138152602001807f53656e646572206973206e6f74206f776e65720000000000000000000000000081525060200191505060405180910390fd5b600260009054906101000a900473ffffffffffffffffffffffffffffffffffffffff1673ffffffffffffffffffffffffffffffffffffffff166108fc3073ffffffffffffffffffffffffffffffffffffffff16319081150290604051600060405180830381858888f19350505050158015610c41573d6000803e3d6000fd5b50565b6000806060806004600086815260200190815260200160002060000160009054906101000a900473ffffffffffffffffffffffffffffffffffffffff1660046000878152602001908152602001600020600101546004600088815260200190815260200160002060020160046000898152602001908152602001600020600301818054600181600116156101000203166002900480601f016020809104026020016040519081016040528092919081815260200182805460018160011615610100020316600290048015610d595780601f10610d2e57610100808354040283529160200191610d59565b820191906000526020600020905b815481529060010190602001808311610d3c57829003601f168201915b50505050509150808054600181600116156101000203166002900480601f016020809104026020016040519081016040528092919081815260200182805460018160011615610100020316600290048015610df55780601f10610dca57610100808354040283529160200191610df5565b820191906000526020600020905b815481529060010190602001808311610dd857829003601f168201915b5050505050905093509350935093509193509193565b610e13611b2e565b60046000838152602001908152602001600020608060405190810160405290816000820160009054906101000a900473ffffffffffffffffffffffffffffffffffffffff1673ffffffffffffffffffffffffffffffffffffffff1673ffffffffffffffffffffffffffffffffffffffff16815260200160018201548152602001600282018054600181600116156101000203166002900480601f016020809104026020016040519081016040528092919081815260200182805460018160011615610100020316600290048015610f2b5780601f10610f0057610100808354040283529160200191610f2b565b820191906000526020600020905b815481529060010190602001808311610f0e57829003601f168201915b50505050508152602001600382018054600181600116156101000203166002900480601f016020809104026020016040519081016040528092919081815260200182805460018160011615610100020316600290048015610fcd5780601f10610fa257610100808354040283529160200191610fcd565b820191906000526020600020905b815481529060010190602001808311610fb057829003601f168201915b5050505050815250509050806000015173ffffffffffffffffffffffffffffffffffffffff163373ffffffffffffffffffffffffffffffffffffffff1614151561107f576040517f08c379a000000000000000000000000000000000000000000000000000000000815260040180806020018281038252601f8152602001807f53656e646572206973206e6f74206f776e6572206f662074686520636172210081525060200191505060405180910390fd5b60038281548110151561108e57fe5b9060005260206000200160006110a49190611b6d565b60046000838152602001908152602001600020600080820160006101000a81549073ffffffffffffffffffffffffffffffffffffffff021916905560018201600090556002820160006110f79190611b6d565b6003820160006111079190611b6d565b5050611117828260000151611915565b5050565b6000806000600460008581526020019081526020016000209250826001015491508160020234101515156111dd576040517f08c379a00000000000000000000000000000000000000000000000000000000081526004018080602001828103825260328152602001807f56616c75652073686f756c64206265206d6f7265207468616e2074776963652081526020017f746865206f726967696e616c207072696365000000000000000000000000000081525060400191505060405180910390fd5b8260000160009054906101000a900473ffffffffffffffffffffffffffffffffffffffff1673ffffffffffffffffffffffffffffffffffffffff163373ffffffffffffffffffffffffffffffffffffffff16141515156112a5576040517f08c379a00000000000000000000000000000000000000000000000000000000081526004018080602001828103825260198152602001807f4f776e65722073686f756c6420626520646966666572656e740000000000000081525060200191505060405180910390fd5b81340390508260000160009054906101000a900473ffffffffffffffffffffffffffffffffffffffff1673ffffffffffffffffffffffffffffffffffffffff166108fc6002838115156112f457fe5b0484019081150290604051600060405180830381858888f19350505050158015611322573d6000803e3d6000fd5b50611351848460000160009054906101000a900473ffffffffffffffffffffffffffffffffffffffff16611915565b338360000160006101000a81548173ffffffffffffffffffffffffffffffffffffffff021916908373ffffffffffffffffffffffffffffffffffffffff16021790555034836001018190555050505050565b60015481565b60008060009054906101000a900473ffffffffffffffffffffffffffffffffffffffff16905090565b60008060009054906101000a900473ffffffffffffffffffffffffffffffffffffffff1673ffffffffffffffffffffffffffffffffffffffff163373ffffffffffffffffffffffffffffffffffffffff1614905090565b6000611433611b2e565b60015434101515156114ad576040517f08c379a00000000000000000000000000000000000000000000000000000000081526004018080602001828103825260188152602001807f4d696e696d756d207072696365206973206e6f74206d6574000000000000000081525060200191505060405180910390fd5b600160038590806001815401808255809150509060018203906000526020600020016000909192909190915090805190602001906114ec929190611bb5565b500391506080604051908101604052803373ffffffffffffffffffffffffffffffffffffffff168152602001348152602001858152602001848152509050806004600084815260200190815260200160002060008201518160000160006101000a81548173ffffffffffffffffffffffffffffffffffffffff021916908373ffffffffffffffffffffffffffffffffffffffff1602179055506020820151816001015560408201518160020190805190602001906115ab929190611c35565b5060608201518160030190805190602001906115c8929190611c35565b50905050600560003373ffffffffffffffffffffffffffffffffffffffff1673ffffffffffffffffffffffffffffffffffffffff168152602001908152602001600020829080600181540180825580915050906001820390600052602060002001600090919290919091505550336006600084815260200190815260200160002060006101000a81548173ffffffffffffffffffffffffffffffffffffffff021916908373ffffffffffffffffffffffffffffffffffffffff1602179055507fb7be78796903a4a28159a9defd30707387d130903ee78659db9520072869199b82826000015183602001518460400151604051808581526020018473ffffffffffffffffffffffffffffffffffffffff1673ffffffffffffffffffffffffffffffffffffffff16815260200183815260200180602001828103825283818151815260200191508051906020019080838360005b8381101561173657808201518184015260208101905061171b565b50505050905090810190601f1680156117635780820380516001836020036101000a031916815260200191505b509550505050505060405180910390a150505050565b6000809054906101000a900473ffffffffffffffffffffffffffffffffffffffff1681565b6000600380549050905090565b6000600560008373ffffffffffffffffffffffffffffffffffffffff1673ffffffffffffffffffffffffffffffffffffffff168152602001908152602001600020805490509050919050565b60066020528060005260406000206000915054906101000a900473ffffffffffffffffffffffffffffffffffffffff1681565b60056020528160005260406000208181548110151561184557fe5b90600052602060002001600091509150505481565b60038181548110151561186957fe5b906000526020600020016000915090508054600181600116156101000203166002900480601f01602080910402602001604051908101604052809291908181526020018280546001816001161561010002031660029004801561190d5780601f106118e25761010080835404028352916020019161190d565b820191906000526020600020905b8154815290600101906020018083116118f057829003601f168201915b505050505081565b6000806000806000809350600560008773ffffffffffffffffffffffffffffffffffffffff1673ffffffffffffffffffffffffffffffffffffffff1681526020019081526020016000209250600091505b82805490508210156119ab5786838381548110151561198157fe5b9060005260206000200154141561199e57600193508194506119ab565b8180600101925050611966565b831515611a20576040517f08c379a00000000000000000000000000000000000000000000000000000000081526004018080602001828103825260158152602001807f436172206861736e2774206265656e20666f756e64000000000000000000000081525060200191505060405180910390fd5b826001848054905003815481101515611a3557fe5b906000526020600020015490508285815481101515611a5057fe5b9060005260206000200154836001858054905003815481101515611a7057fe5b9060005260206000200181905550808386815481101515611a8d57fe5b9060005260206000200181905550826001848054905003815481101515611ab057fe5b906000526020600020016000905582805480919060019003611ad29190611cb5565b50336006600089815260200190815260200160002060006101000a81548173ffffffffffffffffffffffffffffffffffffffff021916908373ffffffffffffffffffffffffffffffffffffffff16021790555050505050505050565b608060405190810160405280600073ffffffffffffffffffffffffffffffffffffffff1681526020016000815260200160608152602001606081525090565b50805460018160011615610100020316600290046000825580601f10611b935750611bb2565b601f016020900490600052602060002090810190611bb19190611ce1565b5b50565b828054600181600116156101000203166002900490600052602060002090601f016020900481019282601f10611bf657805160ff1916838001178555611c24565b82800160010185558215611c24579182015b82811115611c23578251825591602001919060010190611c08565b5b509050611c319190611ce1565b5090565b828054600181600116156101000203166002900490600052602060002090601f016020900481019282601f10611c7657805160ff1916838001178555611ca4565b82800160010185558215611ca4579182015b82811115611ca3578251825591602001919060010190611c88565b5b509050611cb19190611ce1565b5090565b815481835581811115611cdc57818360005260206000209182019101611cdb9190611ce1565b5b505050565b611d0391905b80821115611cff576000816000905550600101611ce7565b5090565b905600a165627a7a723058204cf430f145b0de4e93b9ad9676d7d3a311f34d1a3b1bf0c21282711f8cc599a90029",
  "source": "pragma solidity ^0.4.24;\r\n\r\nimport \"./Ownable.sol\";\r\n\r\ncontract CarFactory is Ownable {\r\n\r\n    uint public minimumPrice;\r\n    address admin;\r\n    string[] public cars;\r\n    mapping(uint => OwnershipStruct) public ownershipStructs;\r\n    mapping(address => uint[]) public allOwnedCars;\r\n    mapping(uint => address ) public carsOwner;\r\n\r\n    modifier contractMinimumPrice(uint _minimumPrice) {\r\n        require(_minimumPrice>0.5 ether, \"Minimum price requirement is not met!\");\r\n        _;\r\n    }\r\n            \r\n    constructor(uint _minimumPrice) public contractMinimumPrice(_minimumPrice) {\r\n        minimumPrice = _minimumPrice;\r\n        admin = msg.sender;\r\n    }\r\n    \r\n    struct OwnershipStruct {\r\n        address owner;\r\n        uint256 price;\r\n        string makeModel;\r\n        string image;\r\n    }\r\n    \r\n    function getOwner() public view returns(address) {\r\n        return _owner;\r\n    }\r\n\r\n    event LogCarBought(uint, address, uint, string );\r\n    function buyCar(string memory _makeModel, string memory image) public payable {\r\n        require(msg.value >= minimumPrice, \"Minimum price is not met\");\r\n        \r\n        // .push() returns the new length;\r\n        uint index = cars.push(_makeModel)-1;\r\n        OwnershipStruct memory ownership = OwnershipStruct(msg.sender, msg.value, _makeModel, image);\r\n        \r\n        // set the ownership\r\n        ownershipStructs[index] = ownership;\r\n        \r\n        // save the all cars owned by someone\r\n        allOwnedCars[msg.sender].push(index);\r\n        carsOwner[index] = msg.sender;\r\n        emit LogCarBought(index, ownership.owner, ownership.price, ownership.makeModel);\r\n    }\r\n    \r\n    function deleteCar(uint _index) public {\r\n        OwnershipStruct memory ownership = ownershipStructs[_index];\r\n        \r\n        require(msg.sender == ownership.owner, \"Sender is not owner of the car!\");\r\n        \r\n        delete cars[_index];\r\n        delete ownershipStructs[_index];\r\n        removeCarFromOwner(_index, ownership.owner);\r\n    }\r\n\r\n    function getCarsLength() public view returns(uint) {\r\n        return cars.length;\r\n    }\r\n    \r\n    function getCarDetails(uint _index) public view returns(address, uint, string memory, string memory) {\r\n        return (ownershipStructs[_index].owner, ownershipStructs[_index].price, ownershipStructs[_index].makeModel, ownershipStructs[_index].image );\r\n    }\r\n    \r\n    function takeOverCar(uint _index) public payable{\r\n        OwnershipStruct storage ownership = ownershipStructs[_index];\r\n        uint paid = ownership.price;\r\n        \r\n        require(msg.value >= 2*paid, \"Value should be more than twice the original price\");\r\n        require(msg.sender != ownership.owner, \"Owner should be different\");\r\n        \r\n        // transfer the money to the old owner\r\n        uint difference = msg.value - paid;\r\n        ownership.owner.transfer(paid + difference/2);\r\n        removeCarFromOwner(_index, ownership.owner);\r\n        \r\n        // set the new owner\r\n        ownership.owner = msg.sender;\r\n        ownership.price = msg.value;\r\n    }\r\n    \r\n    function removeCarFromOwner(uint _carIndex, address previousOwner) private {\r\n        uint elementIndex;\r\n        bool found = false;\r\n        uint[] storage allCars = allOwnedCars[previousOwner];\r\n        for  (uint256 i = 0; i < allCars.length; i++) {\r\n            if(allCars[i] == _carIndex) {\r\n                found = true;\r\n                elementIndex = i;\r\n                break;\r\n            }\r\n        }\r\n\r\n        require(found, \"Car hasn't been found\");\r\n        \r\n        // remove the car from owner's list\r\n        // order doesn't matter\r\n        uint lastItem = allCars[allCars.length-1];\r\n        allCars[allCars.length-1] = allCars[elementIndex];\r\n        allCars[elementIndex] = lastItem;\r\n        delete allCars[allCars.length-1];\r\n        allCars.length--;\r\n\r\n        carsOwner[_carIndex] = msg.sender;\r\n    }\r\n    \r\n    function getCarsByOwner(address _owner) public view returns(uint){\r\n        return allOwnedCars[_owner].length;\r\n    }\r\n    \r\n    // ***************************\r\n    // ********** ADMIN **********\r\n    // ***************************\r\n    function setMinimumPrice(uint _minimumPrice) public onlyOwner contractMinimumPrice(_minimumPrice) {\r\n        minimumPrice = _minimumPrice;\r\n    }\r\n    \r\n    function withdraw() public onlyOwner {\r\n        admin.transfer(address(this).balance);\r\n    }\r\n    \r\n    function getBalance() public view returns(uint) {\r\n        return address(this).balance;\r\n    }\r\n}\r\n",
  "sourcePath": "/Users/vladimir/Personal/ethereum/LimeAcademyHomework/homeworks/car-factory/eth/contracts/CarFactory.sol",
  "compiler": {
    "name": "solc",
    "version": "0.4.25+commit.59dbf8f1.Emscripten.clang"
  },
  "schemaVersion": "0.9.8",
  "updatedAt": "2018-12-02T12:07:39.560Z"
}